{
  "contractName": "EnterpriseContract",
  "abi": [
    {
      "anonymous": false,
      "inputs": [
        {
          "indexed": true,
          "internalType": "address",
          "name": "previousOwner",
          "type": "address"
        },
        {
          "indexed": true,
          "internalType": "address",
          "name": "newOwner",
          "type": "address"
        }
      ],
      "name": "OwnershipTransferred",
      "type": "event"
    },
    {
      "inputs": [
        {
          "internalType": "address",
          "name": "_wallet",
          "type": "address"
        },
        {
          "internalType": "string",
          "name": "_name",
          "type": "string"
        },
        {
          "internalType": "string",
          "name": "_businessName",
          "type": "string"
        },
        {
          "internalType": "string",
          "name": "_fiscalNumber",
          "type": "string"
        },
        {
          "internalType": "string",
          "name": "_phone",
          "type": "string"
        },
        {
          "internalType": "string",
          "name": "_email",
          "type": "string"
        },
        {
          "internalType": "string",
          "name": "_country",
          "type": "string"
        },
        {
          "internalType": "string",
          "name": "_region",
          "type": "string"
        },
        {
          "internalType": "string",
          "name": "_postalCode",
          "type": "string"
        },
        {
          "internalType": "string",
          "name": "_city",
          "type": "string"
        },
        {
          "internalType": "string",
          "name": "_street",
          "type": "string"
        }
      ],
      "name": "addEnterprise",
      "outputs": [],
      "stateMutability": "nonpayable",
      "type": "function"
    },
    {
      "inputs": [
        {
          "internalType": "uint256",
          "name": "",
          "type": "uint256"
        }
      ],
      "name": "enterprisesWalletArray",
      "outputs": [
        {
          "internalType": "address",
          "name": "",
          "type": "address"
        }
      ],
      "stateMutability": "view",
      "type": "function"
    },
    {
      "inputs": [],
      "name": "getAllEnterprises",
      "outputs": [
        {
          "components": [
            {
              "internalType": "address",
              "name": "wallet",
              "type": "address"
            },
            {
              "internalType": "string",
              "name": "name",
              "type": "string"
            },
            {
              "internalType": "string",
              "name": "businessName",
              "type": "string"
            },
            {
              "internalType": "string",
              "name": "fiscalNumber",
              "type": "string"
            },
            {
              "internalType": "int8",
              "name": "minimumLevel",
              "type": "int8"
            },
            {
              "internalType": "string",
              "name": "phone",
              "type": "string"
            },
            {
              "internalType": "string",
              "name": "email",
              "type": "string"
            },
            {
              "internalType": "string",
              "name": "country",
              "type": "string"
            },
            {
              "internalType": "string",
              "name": "region",
              "type": "string"
            },
            {
              "internalType": "string",
              "name": "postalCode",
              "type": "string"
            },
            {
              "internalType": "string",
              "name": "city",
              "type": "string"
            },
            {
              "internalType": "string",
              "name": "street",
              "type": "string"
            },
            {
              "internalType": "string",
              "name": "imageHash",
              "type": "string"
            }
          ],
          "internalType": "struct EnterpriseContract.Enterprise[]",
          "name": "enterpriseList",
          "type": "tuple[]"
        }
      ],
      "stateMutability": "view",
      "type": "function"
    },
    {
      "inputs": [
        {
          "internalType": "address",
          "name": "_wallet",
          "type": "address"
        }
      ],
      "name": "getEnterprise",
      "outputs": [
        {
          "components": [
            {
              "internalType": "address",
              "name": "wallet",
              "type": "address"
            },
            {
              "internalType": "string",
              "name": "name",
              "type": "string"
            },
            {
              "internalType": "string",
              "name": "businessName",
              "type": "string"
            },
            {
              "internalType": "string",
              "name": "fiscalNumber",
              "type": "string"
            },
            {
              "internalType": "int8",
              "name": "minimumLevel",
              "type": "int8"
            },
            {
              "internalType": "string",
              "name": "phone",
              "type": "string"
            },
            {
              "internalType": "string",
              "name": "email",
              "type": "string"
            },
            {
              "internalType": "string",
              "name": "country",
              "type": "string"
            },
            {
              "internalType": "string",
              "name": "region",
              "type": "string"
            },
            {
              "internalType": "string",
              "name": "postalCode",
              "type": "string"
            },
            {
              "internalType": "string",
              "name": "city",
              "type": "string"
            },
            {
              "internalType": "string",
              "name": "street",
              "type": "string"
            },
            {
              "internalType": "string",
              "name": "imageHash",
              "type": "string"
            }
          ],
          "internalType": "struct EnterpriseContract.Enterprise",
          "name": "enterprise",
          "type": "tuple"
        }
      ],
      "stateMutability": "view",
      "type": "function"
    },
    {
      "inputs": [],
      "name": "owner",
      "outputs": [
        {
          "internalType": "address",
          "name": "",
          "type": "address"
        }
      ],
      "stateMutability": "view",
      "type": "function"
    },
    {
      "inputs": [],
      "name": "renounceOwnership",
      "outputs": [],
      "stateMutability": "nonpayable",
      "type": "function"
    },
    {
      "inputs": [
        {
          "internalType": "address",
          "name": "newOwner",
          "type": "address"
        }
      ],
      "name": "transferOwnership",
      "outputs": [],
      "stateMutability": "nonpayable",
      "type": "function"
    },
    {
      "inputs": [
        {
          "internalType": "address",
          "name": "_wallet",
          "type": "address"
        },
        {
          "internalType": "string",
          "name": "_name",
          "type": "string"
        },
        {
          "internalType": "string",
          "name": "_businessName",
          "type": "string"
        },
        {
          "internalType": "string",
          "name": "_fiscalNumber",
          "type": "string"
        },
        {
          "internalType": "string",
          "name": "_phone",
          "type": "string"
        },
        {
          "internalType": "string",
          "name": "_email",
          "type": "string"
        },
        {
          "internalType": "string",
          "name": "_country",
          "type": "string"
        },
        {
          "internalType": "string",
          "name": "_region",
          "type": "string"
        },
        {
          "internalType": "string",
          "name": "_postalCode",
          "type": "string"
        },
        {
          "internalType": "string",
          "name": "_city",
          "type": "string"
        },
        {
          "internalType": "string",
          "name": "_street",
          "type": "string"
        }
      ],
      "name": "updateEnterprise",
      "outputs": [],
      "stateMutability": "nonpayable",
      "type": "function"
    },
    {
      "inputs": [
        {
          "internalType": "address",
          "name": "_wallet",
          "type": "address"
        },
        {
          "internalType": "string",
          "name": "_imageHash",
          "type": "string"
        }
      ],
      "name": "updateImageHash",
      "outputs": [],
      "stateMutability": "nonpayable",
      "type": "function"
    },
    {
      "inputs": [
        {
          "internalType": "address",
          "name": "_wallet",
          "type": "address"
        },
        {
          "internalType": "int8",
          "name": "_minimumLevel",
          "type": "int8"
        }
      ],
      "name": "updateMinimumLevel",
      "outputs": [],
      "stateMutability": "nonpayable",
      "type": "function"
    }
  ],
  "bytecode": "0x60806040523480156200001157600080fd5b5062000032620000266200003860201b60201c565b6200004060201b60201c565b62000104565b600033905090565b60008060009054906101000a900473ffffffffffffffffffffffffffffffffffffffff169050816000806101000a81548173ffffffffffffffffffffffffffffffffffffffff021916908373ffffffffffffffffffffffffffffffffffffffff1602179055508173ffffffffffffffffffffffffffffffffffffffff168173ffffffffffffffffffffffffffffffffffffffff167f8be0079c531659141344cd1fd0a4f28419497f9722a3daafe3b4186f6b6457e060405160405180910390a35050565b6128c480620001146000396000f3fe608060405234801561001057600080fd5b506004361061009e5760003560e01c80638da5cb5b116100665780638da5cb5b14610133578063a429f80114610151578063b5d9fb681461016d578063cce559611461019d578063f2fde38b146101b95761009e565b80631f62b0ca146100a35780632b679438146100bf57806346999989146100dd578063715018a6146100f9578063889cd25314610103575b600080fd5b6100bd60048036038101906100b89190611e46565b6101d5565b005b6100c76104c5565b6040516100d49190612326565b60405180910390f35b6100f760048036038101906100f29190612374565b610caf565b005b610101610d17565b005b61011d600480360381019061011891906123b4565b610d9f565b60405161012a9190612540565b60405180910390f35b61013b6114b2565b6040516101489190612571565b60405180910390f35b61016b60048036038101906101669190611e46565b6114db565b005b610187600480360381019061018291906125c2565b611797565b6040516101949190612571565b60405180910390f35b6101b760048036038101906101b291906125ef565b6117d6565b005b6101d360048036038101906101ce91906123b4565b6119a8565b005b6000604051806101a001604052808d73ffffffffffffffffffffffffffffffffffffffff1681526020018c81526020018b81526020018a81526020016000800b81526020018981526020018881526020018781526020018681526020018581526020018481526020018381526020016040518060600160405280602e8152602001612861602e9139815250905080600160008e73ffffffffffffffffffffffffffffffffffffffff1673ffffffffffffffffffffffffffffffffffffffff16815260200190815260200160002060008201518160000160006101000a81548173ffffffffffffffffffffffffffffffffffffffff021916908373ffffffffffffffffffffffffffffffffffffffff1602179055506020820151816001019080519060200190610305929190611b6b565b506040820151816002019080519060200190610322929190611b6b565b50606082015181600301908051906020019061033f929190611b6b565b5060808201518160040160006101000a81548160ff021916908360000b60ff16021790555060a0820151816005019080519060200190610380929190611b6b565b5060c082015181600601908051906020019061039d929190611b6b565b5060e08201518160070190805190602001906103ba929190611b6b565b506101008201518160080190805190602001906103d8929190611b6b565b506101208201518160090190805190602001906103f6929190611b6b565b5061014082015181600a019080519060200190610414929190611b6b565b5061016082015181600b019080519060200190610432929190611b6b565b5061018082015181600c019080519060200190610450929190611b6b565b5090505060028c9080600181540180825580915050600190039060005260206000200160009091909190916101000a81548173ffffffffffffffffffffffffffffffffffffffff021916908373ffffffffffffffffffffffffffffffffffffffff160217905550505050505050505050505050565b606060028054905067ffffffffffffffff8111156104e6576104e5611d1b565b5b60405190808252806020026020018201604052801561051f57816020015b61050c611bf1565b8152602001906001900390816105045790505b50905060005b600280549050811015610cab576000600282815481106105485761054761264b565b5b9060005260206000200160009054906101000a900473ffffffffffffffffffffffffffffffffffffffff169050600160008273ffffffffffffffffffffffffffffffffffffffff1673ffffffffffffffffffffffffffffffffffffffff168152602001908152602001600020604051806101a00160405290816000820160009054906101000a900473ffffffffffffffffffffffffffffffffffffffff1673ffffffffffffffffffffffffffffffffffffffff1673ffffffffffffffffffffffffffffffffffffffff168152602001600182018054610626906126a9565b80601f0160208091040260200160405190810160405280929190818152602001828054610652906126a9565b801561069f5780601f106106745761010080835404028352916020019161069f565b820191906000526020600020905b81548152906001019060200180831161068257829003601f168201915b505050505081526020016002820180546106b8906126a9565b80601f01602080910402602001604051908101604052809291908181526020018280546106e4906126a9565b80156107315780601f1061070657610100808354040283529160200191610731565b820191906000526020600020905b81548152906001019060200180831161071457829003601f168201915b5050505050815260200160038201805461074a906126a9565b80601f0160208091040260200160405190810160405280929190818152602001828054610776906126a9565b80156107c35780601f10610798576101008083540402835291602001916107c3565b820191906000526020600020905b8154815290600101906020018083116107a657829003601f168201915b505050505081526020016004820160009054906101000a900460000b60000b60000b81526020016005820180546107f9906126a9565b80601f0160208091040260200160405190810160405280929190818152602001828054610825906126a9565b80156108725780601f1061084757610100808354040283529160200191610872565b820191906000526020600020905b81548152906001019060200180831161085557829003601f168201915b5050505050815260200160068201805461088b906126a9565b80601f01602080910402602001604051908101604052809291908181526020018280546108b7906126a9565b80156109045780601f106108d957610100808354040283529160200191610904565b820191906000526020600020905b8154815290600101906020018083116108e757829003601f168201915b5050505050815260200160078201805461091d906126a9565b80601f0160208091040260200160405190810160405280929190818152602001828054610949906126a9565b80156109965780601f1061096b57610100808354040283529160200191610996565b820191906000526020600020905b81548152906001019060200180831161097957829003601f168201915b505050505081526020016008820180546109af906126a9565b80601f01602080910402602001604051908101604052809291908181526020018280546109db906126a9565b8015610a285780601f106109fd57610100808354040283529160200191610a28565b820191906000526020600020905b815481529060010190602001808311610a0b57829003601f168201915b50505050508152602001600982018054610a41906126a9565b80601f0160208091040260200160405190810160405280929190818152602001828054610a6d906126a9565b8015610aba5780601f10610a8f57610100808354040283529160200191610aba565b820191906000526020600020905b815481529060010190602001808311610a9d57829003601f168201915b50505050508152602001600a82018054610ad3906126a9565b80601f0160208091040260200160405190810160405280929190818152602001828054610aff906126a9565b8015610b4c5780601f10610b2157610100808354040283529160200191610b4c565b820191906000526020600020905b815481529060010190602001808311610b2f57829003601f168201915b50505050508152602001600b82018054610b65906126a9565b80601f0160208091040260200160405190810160405280929190818152602001828054610b91906126a9565b8015610bde5780601f10610bb357610100808354040283529160200191610bde565b820191906000526020600020905b815481529060010190602001808311610bc157829003601f168201915b50505050508152602001600c82018054610bf7906126a9565b80601f0160208091040260200160405190810160405280929190818152602001828054610c23906126a9565b8015610c705780601f10610c4557610100808354040283529160200191610c70565b820191906000526020600020905b815481529060010190602001808311610c5357829003601f168201915b505050505081525050838381518110610c8c57610c8b61264b565b5b6020026020010181905250508080610ca390612709565b915050610525565b5090565b6000600160008473ffffffffffffffffffffffffffffffffffffffff1673ffffffffffffffffffffffffffffffffffffffff1681526020019081526020016000209050818160040160006101000a81548160ff021916908360000b60ff160217905550505050565b610d1f611a9f565b73ffffffffffffffffffffffffffffffffffffffff16610d3d6114b2565b73ffffffffffffffffffffffffffffffffffffffff1614610d93576040517f08c379a0000000000000000000000000000000000000000000000000000000008152600401610d8a906127ae565b60405180910390fd5b610d9d6000611aa7565b565b610da7611bf1565b600160008373ffffffffffffffffffffffffffffffffffffffff1673ffffffffffffffffffffffffffffffffffffffff168152602001908152602001600020604051806101a00160405290816000820160009054906101000a900473ffffffffffffffffffffffffffffffffffffffff1673ffffffffffffffffffffffffffffffffffffffff1673ffffffffffffffffffffffffffffffffffffffff168152602001600182018054610e58906126a9565b80601f0160208091040260200160405190810160405280929190818152602001828054610e84906126a9565b8015610ed15780601f10610ea657610100808354040283529160200191610ed1565b820191906000526020600020905b815481529060010190602001808311610eb457829003601f168201915b50505050508152602001600282018054610eea906126a9565b80601f0160208091040260200160405190810160405280929190818152602001828054610f16906126a9565b8015610f635780601f10610f3857610100808354040283529160200191610f63565b820191906000526020600020905b815481529060010190602001808311610f4657829003601f168201915b50505050508152602001600382018054610f7c906126a9565b80601f0160208091040260200160405190810160405280929190818152602001828054610fa8906126a9565b8015610ff55780601f10610fca57610100808354040283529160200191610ff5565b820191906000526020600020905b815481529060010190602001808311610fd857829003601f168201915b505050505081526020016004820160009054906101000a900460000b60000b60000b815260200160058201805461102b906126a9565b80601f0160208091040260200160405190810160405280929190818152602001828054611057906126a9565b80156110a45780601f10611079576101008083540402835291602001916110a4565b820191906000526020600020905b81548152906001019060200180831161108757829003601f168201915b505050505081526020016006820180546110bd906126a9565b80601f01602080910402602001604051908101604052809291908181526020018280546110e9906126a9565b80156111365780601f1061110b57610100808354040283529160200191611136565b820191906000526020600020905b81548152906001019060200180831161111957829003601f168201915b5050505050815260200160078201805461114f906126a9565b80601f016020809104026020016040519081016040528092919081815260200182805461117b906126a9565b80156111c85780601f1061119d576101008083540402835291602001916111c8565b820191906000526020600020905b8154815290600101906020018083116111ab57829003601f168201915b505050505081526020016008820180546111e1906126a9565b80601f016020809104026020016040519081016040528092919081815260200182805461120d906126a9565b801561125a5780601f1061122f5761010080835404028352916020019161125a565b820191906000526020600020905b81548152906001019060200180831161123d57829003601f168201915b50505050508152602001600982018054611273906126a9565b80601f016020809104026020016040519081016040528092919081815260200182805461129f906126a9565b80156112ec5780601f106112c1576101008083540402835291602001916112ec565b820191906000526020600020905b8154815290600101906020018083116112cf57829003601f168201915b50505050508152602001600a82018054611305906126a9565b80601f0160208091040260200160405190810160405280929190818152602001828054611331906126a9565b801561137e5780601f106113535761010080835404028352916020019161137e565b820191906000526020600020905b81548152906001019060200180831161136157829003601f168201915b50505050508152602001600b82018054611397906126a9565b80601f01602080910402602001604051908101604052809291908181526020018280546113c3906126a9565b80156114105780601f106113e557610100808354040283529160200191611410565b820191906000526020600020905b8154815290600101906020018083116113f357829003601f168201915b50505050508152602001600c82018054611429906126a9565b80601f0160208091040260200160405190810160405280929190818152602001828054611455906126a9565b80156114a25780601f10611477576101008083540402835291602001916114a2565b820191906000526020600020905b81548152906001019060200180831161148557829003601f168201915b5050505050815250509050919050565b60008060009054906101000a900473ffffffffffffffffffffffffffffffffffffffff16905090565b8a8073ffffffffffffffffffffffffffffffffffffffff16600160008373ffffffffffffffffffffffffffffffffffffffff1673ffffffffffffffffffffffffffffffffffffffff16815260200190815260200160002060000160009054906101000a900473ffffffffffffffffffffffffffffffffffffffff1673ffffffffffffffffffffffffffffffffffffffff161480156116085750600073ffffffffffffffffffffffffffffffffffffffff16600160008373ffffffffffffffffffffffffffffffffffffffff1673ffffffffffffffffffffffffffffffffffffffff16815260200190815260200160002060000160009054906101000a900473ffffffffffffffffffffffffffffffffffffffff1673ffffffffffffffffffffffffffffffffffffffff1614155b61161157600080fd5b8b8073ffffffffffffffffffffffffffffffffffffffff163373ffffffffffffffffffffffffffffffffffffffff161461164a57600080fd5b6000600160008f73ffffffffffffffffffffffffffffffffffffffff1673ffffffffffffffffffffffffffffffffffffffff16815260200190815260200160002090508c8160010190805190602001906116a5929190611b6b565b508b8160020190805190602001906116be929190611b6b565b508a8160030190805190602001906116d7929190611b6b565b50898160050190805190602001906116f0929190611b6b565b5088816006019080519060200190611709929190611b6b565b5087816007019080519060200190611722929190611b6b565b508681600801908051906020019061173b929190611b6b565b5085816009019080519060200190611754929190611b6b565b508481600a01908051906020019061176d929190611b6b565b508381600b019080519060200190611786929190611b6b565b505050505050505050505050505050565b600281815481106117a757600080fd5b906000526020600020016000915054906101000a900473ffffffffffffffffffffffffffffffffffffffff1681565b818073ffffffffffffffffffffffffffffffffffffffff16600160008373ffffffffffffffffffffffffffffffffffffffff1673ffffffffffffffffffffffffffffffffffffffff16815260200190815260200160002060000160009054906101000a900473ffffffffffffffffffffffffffffffffffffffff1673ffffffffffffffffffffffffffffffffffffffff161480156119035750600073ffffffffffffffffffffffffffffffffffffffff16600160008373ffffffffffffffffffffffffffffffffffffffff1673ffffffffffffffffffffffffffffffffffffffff16815260200190815260200160002060000160009054906101000a900473ffffffffffffffffffffffffffffffffffffffff1673ffffffffffffffffffffffffffffffffffffffff1614155b61190c57600080fd5b828073ffffffffffffffffffffffffffffffffffffffff163373ffffffffffffffffffffffffffffffffffffffff161461194557600080fd5b6000600160008673ffffffffffffffffffffffffffffffffffffffff1673ffffffffffffffffffffffffffffffffffffffff16815260200190815260200160002090508381600c0190805190602001906119a0929190611b6b565b505050505050565b6119b0611a9f565b73ffffffffffffffffffffffffffffffffffffffff166119ce6114b2565b73ffffffffffffffffffffffffffffffffffffffff1614611a24576040517f08c379a0000000000000000000000000000000000000000000000000000000008152600401611a1b906127ae565b60405180910390fd5b600073ffffffffffffffffffffffffffffffffffffffff168173ffffffffffffffffffffffffffffffffffffffff1603611a93576040517f08c379a0000000000000000000000000000000000000000000000000000000008152600401611a8a90612840565b60405180910390fd5b611a9c81611aa7565b50565b600033905090565b60008060009054906101000a900473ffffffffffffffffffffffffffffffffffffffff169050816000806101000a81548173ffffffffffffffffffffffffffffffffffffffff021916908373ffffffffffffffffffffffffffffffffffffffff1602179055508173ffffffffffffffffffffffffffffffffffffffff168173ffffffffffffffffffffffffffffffffffffffff167f8be0079c531659141344cd1fd0a4f28419497f9722a3daafe3b4186f6b6457e060405160405180910390a35050565b828054611b77906126a9565b90600052602060002090601f016020900481019282611b995760008555611be0565b82601f10611bb257805160ff1916838001178555611be0565b82800160010185558215611be0579182015b82811115611bdf578251825591602001919060010190611bc4565b5b509050611bed9190611c71565b5090565b604051806101a00160405280600073ffffffffffffffffffffffffffffffffffffffff1681526020016060815260200160608152602001606081526020016000800b815260200160608152602001606081526020016060815260200160608152602001606081526020016060815260200160608152602001606081525090565b5b80821115611c8a576000816000905550600101611c72565b5090565b6000604051905090565b600080fd5b600080fd5b600073ffffffffffffffffffffffffffffffffffffffff82169050919050565b6000611ccd82611ca2565b9050919050565b611cdd81611cc2565b8114611ce857600080fd5b50565b600081359050611cfa81611cd4565b92915050565b600080fd5b600080fd5b6000601f19601f8301169050919050565b7f4e487b7100000000000000000000000000000000000000000000000000000000600052604160045260246000fd5b611d5382611d0a565b810181811067ffffffffffffffff82111715611d7257611d71611d1b565b5b80604052505050565b6000611d85611c8e565b9050611d918282611d4a565b919050565b600067ffffffffffffffff821115611db157611db0611d1b565b5b611dba82611d0a565b9050602081019050919050565b82818337600083830152505050565b6000611de9611de484611d96565b611d7b565b905082815260208101848484011115611e0557611e04611d05565b5b611e10848285611dc7565b509392505050565b600082601f830112611e2d57611e2c611d00565b5b8135611e3d848260208601611dd6565b91505092915050565b60008060008060008060008060008060006101608c8e031215611e6c57611e6b611c98565b5b6000611e7a8e828f01611ceb565b9b505060208c013567ffffffffffffffff811115611e9b57611e9a611c9d565b5b611ea78e828f01611e18565b9a505060408c013567ffffffffffffffff811115611ec857611ec7611c9d565b5b611ed48e828f01611e18565b99505060608c013567ffffffffffffffff811115611ef557611ef4611c9d565b5b611f018e828f01611e18565b98505060808c013567ffffffffffffffff811115611f2257611f21611c9d565b5b611f2e8e828f01611e18565b97505060a08c013567ffffffffffffffff811115611f4f57611f4e611c9d565b5b611f5b8e828f01611e18565b96505060c08c013567ffffffffffffffff811115611f7c57611f7b611c9d565b5b611f888e828f01611e18565b95505060e08c013567ffffffffffffffff811115611fa957611fa8611c9d565b5b611fb58e828f01611e18565b9450506101008c013567ffffffffffffffff811115611fd757611fd6611c9d565b5b611fe38e828f01611e18565b9350506101208c013567ffffffffffffffff81111561200557612004611c9d565b5b6120118e828f01611e18565b9250506101408c013567ffffffffffffffff81111561203357612032611c9d565b5b61203f8e828f01611e18565b9150509295989b509295989b9093969950565b600081519050919050565b600082825260208201905092915050565b6000819050602082019050919050565b61208781611cc2565b82525050565b600081519050919050565b600082825260208201905092915050565b60005b838110156120c75780820151818401526020810190506120ac565b838111156120d6576000848401525b50505050565b60006120e78261208d565b6120f18185612098565b93506121018185602086016120a9565b61210a81611d0a565b840191505092915050565b60008160000b9050919050565b61212b81612115565b82525050565b60006101a08301600083015161214a600086018261207e565b506020830151848203602086015261216282826120dc565b9150506040830151848203604086015261217c82826120dc565b9150506060830151848203606086015261219682826120dc565b91505060808301516121ab6080860182612122565b5060a083015184820360a08601526121c382826120dc565b91505060c083015184820360c08601526121dd82826120dc565b91505060e083015184820360e08601526121f782826120dc565b91505061010083015184820361010086015261221382826120dc565b91505061012083015184820361012086015261222f82826120dc565b91505061014083015184820361014086015261224b82826120dc565b91505061016083015184820361016086015261226782826120dc565b91505061018083015184820361018086015261228382826120dc565b9150508091505092915050565b600061229c8383612131565b905092915050565b6000602082019050919050565b60006122bc82612052565b6122c6818561205d565b9350836020820285016122d88561206e565b8060005b8581101561231457848403895281516122f58582612290565b9450612300836122a4565b925060208a019950506001810190506122dc565b50829750879550505050505092915050565b6000602082019050818103600083015261234081846122b1565b905092915050565b61235181612115565b811461235c57600080fd5b50565b60008135905061236e81612348565b92915050565b6000806040838503121561238b5761238a611c98565b5b600061239985828601611ceb565b92505060206123aa8582860161235f565b9150509250929050565b6000602082840312156123ca576123c9611c98565b5b60006123d884828501611ceb565b91505092915050565b60006101a0830160008301516123fa600086018261207e565b506020830151848203602086015261241282826120dc565b9150506040830151848203604086015261242c82826120dc565b9150506060830151848203606086015261244682826120dc565b915050608083015161245b6080860182612122565b5060a083015184820360a086015261247382826120dc565b91505060c083015184820360c086015261248d82826120dc565b91505060e083015184820360e08601526124a782826120dc565b9150506101008301518482036101008601526124c382826120dc565b9150506101208301518482036101208601526124df82826120dc565b9150506101408301518482036101408601526124fb82826120dc565b91505061016083015184820361016086015261251782826120dc565b91505061018083015184820361018086015261253382826120dc565b9150508091505092915050565b6000602082019050818103600083015261255a81846123e1565b905092915050565b61256b81611cc2565b82525050565b60006020820190506125866000830184612562565b92915050565b6000819050919050565b61259f8161258c565b81146125aa57600080fd5b50565b6000813590506125bc81612596565b92915050565b6000602082840312156125d8576125d7611c98565b5b60006125e6848285016125ad565b91505092915050565b6000806040838503121561260657612605611c98565b5b600061261485828601611ceb565b925050602083013567ffffffffffffffff81111561263557612634611c9d565b5b61264185828601611e18565b9150509250929050565b7f4e487b7100000000000000000000000000000000000000000000000000000000600052603260045260246000fd5b7f4e487b7100000000000000000000000000000000000000000000000000000000600052602260045260246000fd5b600060028204905060018216806126c157607f821691505b6020821081036126d4576126d361267a565b5b50919050565b7f4e487b7100000000000000000000000000000000000000000000000000000000600052601160045260246000fd5b60006127148261258c565b91507fffffffffffffffffffffffffffffffffffffffffffffffffffffffffffffffff8203612746576127456126da565b5b600182019050919050565b600082825260208201905092915050565b7f4f776e61626c653a2063616c6c6572206973206e6f7420746865206f776e6572600082015250565b6000612798602083612751565b91506127a382612762565b602082019050919050565b600060208201905081810360008301526127c78161278b565b9050919050565b7f4f776e61626c653a206e6577206f776e657220697320746865207a65726f206160008201527f6464726573730000000000000000000000000000000000000000000000000000602082015250565b600061282a602683612751565b9150612835826127ce565b604082019050919050565b600060208201905081810360008301526128598161281d565b905091905056fe516d55736f3368446e6434583134794d33353866563748346f715471686839737a3138733273483151684c565735a2646970667358221220942539e90482b577b3d731c6ece9549eef0bd9f3c5f11741add77ee928ec4b7f64736f6c634300080e0033",
  "immutableReferences": {},
  "source": "//SPDX-License-Identifier: UNLICENSED\r\npragma solidity >=0.4.22 <0.9.0;\r\n\r\nimport \"./utils/Ownable.sol\";\r\n\r\ncontract EnterpriseContract is Ownable {\r\n    struct Enterprise {\r\n        address wallet;\r\n        string name;\r\n        string businessName;\r\n        string fiscalNumber;\r\n        int8 minimumLevel;\r\n        string phone;\r\n        string email;\r\n        string country;\r\n        string region;\r\n        string postalCode;\r\n        string city;\r\n        string street;\r\n        string imageHash;\r\n        //Guardo los numeros como string porque no voy a operar con ellos, adems que en este caso, pueden ser nulos o vacos, mientras que si es un uint, no.\r\n    }\r\n\r\n    mapping(address => Enterprise) private enterprises;\r\n    address[] public enterprisesWalletArray;\r\n\r\n    function addEnterprise(\r\n        address _wallet,\r\n        string memory _name,\r\n        string memory _businessName,\r\n        string memory _fiscalNumber,\r\n        string memory _phone,\r\n        string memory _email,\r\n        string memory _country,\r\n        string memory _region,\r\n        string memory _postalCode,\r\n        string memory _city,\r\n        string memory _street\r\n    ) public {\r\n        Enterprise memory enterprise = Enterprise(\r\n            _wallet,\r\n            _name,\r\n            _businessName,\r\n            _fiscalNumber,\r\n            0,\r\n            _phone,\r\n            _email,\r\n            _country,\r\n            _region,\r\n            _postalCode,\r\n            _city,\r\n            _street,\r\n            \"QmUso3hDnd4X14yM358fV7H4oqTqhh9sz18s2sH1QhLVW5\"\r\n        );\r\n        enterprises[_wallet] = enterprise;\r\n        enterprisesWalletArray.push(_wallet);\r\n    }\r\n\r\n    function updateMinimumLevel(address _wallet, int8 _minimumLevel) public {\r\n        Enterprise storage enterprise = enterprises[_wallet];\r\n        enterprise.minimumLevel = _minimumLevel;\r\n    }\r\n\r\n    function updateImageHash(address _wallet, string memory _imageHash)\r\n        public\r\n        requireEnterpriseExist(_wallet)\r\n        requireWallet(_wallet)\r\n    {\r\n        Enterprise storage enterprise = enterprises[_wallet];\r\n        enterprise.imageHash = _imageHash;\r\n    }\r\n\r\n    //TODO: GET Enterprise only if same wallet or enterprise\r\n    function getEnterprise(address _wallet)\r\n        public\r\n        view\r\n        returns (Enterprise memory enterprise)\r\n    {\r\n        enterprise = enterprises[_wallet];\r\n    }\r\n\r\n    //TODO: update Enterprise only if same wallet\r\n    function updateEnterprise(\r\n        address _wallet,\r\n        string memory _name,\r\n        string memory _businessName,\r\n        string memory _fiscalNumber,\r\n        string memory _phone,\r\n        string memory _email,\r\n        string memory _country,\r\n        string memory _region,\r\n        string memory _postalCode,\r\n        string memory _city,\r\n        string memory _street\r\n    ) public requireEnterpriseExist(_wallet) requireWallet(_wallet) {\r\n        Enterprise storage enterprise = enterprises[_wallet];\r\n        enterprise.name = _name;\r\n        enterprise.businessName = _businessName;\r\n        enterprise.fiscalNumber = _fiscalNumber;\r\n        enterprise.phone = _phone;\r\n        enterprise.email = _email;\r\n        enterprise.country = _country;\r\n        enterprise.region = _region;\r\n        enterprise.postalCode = _postalCode;\r\n        enterprise.city = _city;\r\n        enterprise.street = _street;\r\n    }\r\n\r\n    /* function to get all enterprises from mapping */\r\n    function getAllEnterprises()\r\n        public\r\n        view\r\n        returns (Enterprise[] memory enterpriseList)\r\n    {\r\n        enterpriseList = new Enterprise[](enterprisesWalletArray.length);\r\n        for (uint256 i = 0; i < enterprisesWalletArray.length; i++) {\r\n            address wallet = enterprisesWalletArray[i];\r\n            enterpriseList[i] = enterprises[wallet];\r\n        }\r\n        return enterpriseList;\r\n    }\r\n\r\n    //modifier that require that Enterprise exist on the mapping\r\n    modifier requireEnterpriseExist(address _wallet) {\r\n        require(\r\n            enterprises[_wallet].wallet == _wallet &&\r\n                enterprises[_wallet].wallet != address(0)\r\n        );\r\n        _;\r\n    }\r\n\r\n    //modifier to check that wallet is the same as the one in the mapping\r\n    modifier requireWallet(address _wallet) {\r\n        require(msg.sender == _wallet);\r\n        _;\r\n    }\r\n}\r\n",
  "sourcePath": "C:\\Users\\inava\\Desktop\\Repositorios\\DocTrack\\doctrack\\src\\contracts\\contracts\\Enterprise.sol",
  "compiler": {
    "name": "solc",
    "version": "0.8.14+commit.80d49f37.Emscripten.clang"
  },
  "schemaVersion": "3.4.7",
  "updatedAt": "2022-06-29T17:16:41.899Z",
  "networkType": "ethereum",
  "devdoc": {
    "kind": "dev",
    "methods": {
      "owner()": {
        "details": "Returns the address of the current owner."
      },
      "renounceOwnership()": {
        "details": "Leaves the contract without owner. It will not be possible to call `onlyOwner` functions anymore. Can only be called by the current owner. NOTE: Renouncing ownership will leave the contract without an owner, thereby removing any functionality that is only available to the owner."
      },
      "transferOwnership(address)": {
        "details": "Transfers ownership of the contract to a new account (`newOwner`). Can only be called by the current owner."
      }
    },
    "version": 1
  },
  "userdoc": {
    "kind": "user",
    "methods": {},
    "version": 1
  }
}