{
  "contractName": "MessageContract",
  "abi": [
    {
      "inputs": [
        {
          "internalType": "address",
          "name": "_enterpriseWallet",
          "type": "address"
        }
      ],
      "name": "getAllMessagesFromEnterprise",
      "outputs": [
        {
          "components": [
            {
              "internalType": "uint256",
              "name": "id",
              "type": "uint256"
            },
            {
              "internalType": "string",
              "name": "subject",
              "type": "string"
            },
            {
              "internalType": "string",
              "name": "content",
              "type": "string"
            },
            {
              "internalType": "address",
              "name": "user",
              "type": "address"
            },
            {
              "internalType": "address",
              "name": "enterprise",
              "type": "address"
            },
            {
              "internalType": "string",
              "name": "documenthash",
              "type": "string"
            },
            {
              "internalType": "bool",
              "name": "sent",
              "type": "bool"
            },
            {
              "internalType": "bool",
              "name": "downloaded",
              "type": "bool"
            },
            {
              "internalType": "bool",
              "name": "resent",
              "type": "bool"
            },
            {
              "internalType": "bool",
              "name": "confirmed",
              "type": "bool"
            },
            {
              "internalType": "bool",
              "name": "rejected",
              "type": "bool"
            }
          ],
          "internalType": "struct MessageContract.Message[]",
          "name": "",
          "type": "tuple[]"
        }
      ],
      "stateMutability": "view",
      "type": "function"
    },
    {
      "inputs": [
        {
          "internalType": "address",
          "name": "_userWallet",
          "type": "address"
        }
      ],
      "name": "getAllMessagesFromUser",
      "outputs": [
        {
          "components": [
            {
              "internalType": "uint256",
              "name": "id",
              "type": "uint256"
            },
            {
              "internalType": "string",
              "name": "subject",
              "type": "string"
            },
            {
              "internalType": "string",
              "name": "content",
              "type": "string"
            },
            {
              "internalType": "address",
              "name": "user",
              "type": "address"
            },
            {
              "internalType": "address",
              "name": "enterprise",
              "type": "address"
            },
            {
              "internalType": "string",
              "name": "documenthash",
              "type": "string"
            },
            {
              "internalType": "bool",
              "name": "sent",
              "type": "bool"
            },
            {
              "internalType": "bool",
              "name": "downloaded",
              "type": "bool"
            },
            {
              "internalType": "bool",
              "name": "resent",
              "type": "bool"
            },
            {
              "internalType": "bool",
              "name": "confirmed",
              "type": "bool"
            },
            {
              "internalType": "bool",
              "name": "rejected",
              "type": "bool"
            }
          ],
          "internalType": "struct MessageContract.Message[]",
          "name": "",
          "type": "tuple[]"
        }
      ],
      "stateMutability": "view",
      "type": "function"
    },
    {
      "inputs": [
        {
          "internalType": "uint256",
          "name": "_id",
          "type": "uint256"
        }
      ],
      "name": "getMessage",
      "outputs": [
        {
          "components": [
            {
              "internalType": "uint256",
              "name": "id",
              "type": "uint256"
            },
            {
              "internalType": "string",
              "name": "subject",
              "type": "string"
            },
            {
              "internalType": "string",
              "name": "content",
              "type": "string"
            },
            {
              "internalType": "address",
              "name": "user",
              "type": "address"
            },
            {
              "internalType": "address",
              "name": "enterprise",
              "type": "address"
            },
            {
              "internalType": "string",
              "name": "documenthash",
              "type": "string"
            },
            {
              "internalType": "bool",
              "name": "sent",
              "type": "bool"
            },
            {
              "internalType": "bool",
              "name": "downloaded",
              "type": "bool"
            },
            {
              "internalType": "bool",
              "name": "resent",
              "type": "bool"
            },
            {
              "internalType": "bool",
              "name": "confirmed",
              "type": "bool"
            },
            {
              "internalType": "bool",
              "name": "rejected",
              "type": "bool"
            }
          ],
          "internalType": "struct MessageContract.Message",
          "name": "",
          "type": "tuple"
        }
      ],
      "stateMutability": "view",
      "type": "function"
    },
    {
      "inputs": [
        {
          "internalType": "uint256",
          "name": "_id",
          "type": "uint256"
        }
      ],
      "name": "setConfirmed",
      "outputs": [],
      "stateMutability": "nonpayable",
      "type": "function"
    },
    {
      "inputs": [
        {
          "internalType": "uint256",
          "name": "_id",
          "type": "uint256"
        }
      ],
      "name": "setDownloaded",
      "outputs": [],
      "stateMutability": "nonpayable",
      "type": "function"
    },
    {
      "inputs": [
        {
          "internalType": "uint256",
          "name": "_id",
          "type": "uint256"
        }
      ],
      "name": "setRejected",
      "outputs": [],
      "stateMutability": "nonpayable",
      "type": "function"
    },
    {
      "inputs": [
        {
          "internalType": "address",
          "name": "_userWallet",
          "type": "address"
        },
        {
          "internalType": "address",
          "name": "_enterpriseWallet",
          "type": "address"
        },
        {
          "internalType": "string",
          "name": "_subject",
          "type": "string"
        },
        {
          "internalType": "string",
          "name": "_content",
          "type": "string"
        },
        {
          "internalType": "string",
          "name": "_documentHash",
          "type": "string"
        }
      ],
      "name": "writeMessage",
      "outputs": [],
      "stateMutability": "nonpayable",
      "type": "function"
    }
  ],
  "bytecode": "0x608060405234801561001057600080fd5b50611db2806100206000396000f3fe608060405234801561001057600080fd5b506004361061007d5760003560e01c80637f1516b81161005b5780637f1516b8146100ea57806386f79edb14610106578063cbbdd28314610136578063cc67e9aa146101525761007d565b806302f71cf81461008257806360c18bc11461009e5780637019e764146100ba575b600080fd5b61009c600480360381019061009791906115b4565b610182565b005b6100b860048036038101906100b391906115b4565b6101c2565b005b6100d460048036038101906100cf919061163f565b610202565b6040516100e191906118fd565b60405180910390f35b61010460048036038101906100ff91906115b4565b6106c4565b005b610120600480360381019061011b91906115b4565b610704565b60405161012d9190611a1c565b60405180910390f35b610150600480360381019061014b9190611b73565b610a34565b005b61016c6004803603810190610167919061163f565b610f3d565b60405161017991906118fd565b60405180910390f35b600180828154811061019757610196611c42565b5b906000526020600020906007020160060160046101000a81548160ff02191690831515021790555050565b60018082815481106101d7576101d6611c42565b5b906000526020600020906007020160060160036101000a81548160ff02191690831515021790555050565b60606000600260008473ffffffffffffffffffffffffffffffffffffffff1673ffffffffffffffffffffffffffffffffffffffff16815260200190815260200160002080549050905060008167ffffffffffffffff81111561026757610266611a48565b5b6040519080825280602002602001820160405280156102a057816020015b61028d611437565b8152602001906001900390816102855790505b5090506000600260008673ffffffffffffffffffffffffffffffffffffffff1673ffffffffffffffffffffffffffffffffffffffff16815260200190815260200160002080548060200260200160405190810160405280929190818152602001828054801561032e57602002820191906000526020600020905b81548152602001906001019080831161031a575b5050505050905060005b838110156106b857600082828151811061035557610354611c42565b5b6020026020010151905060006001828154811061037557610374611c42565b5b906000526020600020906007020160405180610160016040529081600082015481526020016001820180546103a990611ca0565b80601f01602080910402602001604051908101604052809291908181526020018280546103d590611ca0565b80156104225780601f106103f757610100808354040283529160200191610422565b820191906000526020600020905b81548152906001019060200180831161040557829003601f168201915b5050505050815260200160028201805461043b90611ca0565b80601f016020809104026020016040519081016040528092919081815260200182805461046790611ca0565b80156104b45780601f10610489576101008083540402835291602001916104b4565b820191906000526020600020905b81548152906001019060200180831161049757829003601f168201915b505050505081526020016003820160009054906101000a900473ffffffffffffffffffffffffffffffffffffffff1673ffffffffffffffffffffffffffffffffffffffff1673ffffffffffffffffffffffffffffffffffffffff1681526020016004820160009054906101000a900473ffffffffffffffffffffffffffffffffffffffff1673ffffffffffffffffffffffffffffffffffffffff1673ffffffffffffffffffffffffffffffffffffffff16815260200160058201805461057990611ca0565b80601f01602080910402602001604051908101604052809291908181526020018280546105a590611ca0565b80156105f25780601f106105c7576101008083540402835291602001916105f2565b820191906000526020600020905b8154815290600101906020018083116105d557829003601f168201915b505050505081526020016006820160009054906101000a900460ff161515151581526020016006820160019054906101000a900460ff161515151581526020016006820160029054906101000a900460ff161515151581526020016006820160039054906101000a900460ff161515151581526020016006820160049054906101000a900460ff16151515158152505090508085848151811061069857610697611c42565b5b6020026020010181905250505080806106b090611d00565b915050610338565b50819350505050919050565b60018082815481106106d9576106d8611c42565b5b906000526020600020906007020160060160016101000a81548160ff02191690831515021790555050565b61070c611437565b600182815481106107205761071f611c42565b5b9060005260206000209060070201604051806101600160405290816000820154815260200160018201805461075490611ca0565b80601f016020809104026020016040519081016040528092919081815260200182805461078090611ca0565b80156107cd5780601f106107a2576101008083540402835291602001916107cd565b820191906000526020600020905b8154815290600101906020018083116107b057829003601f168201915b505050505081526020016002820180546107e690611ca0565b80601f016020809104026020016040519081016040528092919081815260200182805461081290611ca0565b801561085f5780601f106108345761010080835404028352916020019161085f565b820191906000526020600020905b81548152906001019060200180831161084257829003601f168201915b505050505081526020016003820160009054906101000a900473ffffffffffffffffffffffffffffffffffffffff1673ffffffffffffffffffffffffffffffffffffffff1673ffffffffffffffffffffffffffffffffffffffff1681526020016004820160009054906101000a900473ffffffffffffffffffffffffffffffffffffffff1673ffffffffffffffffffffffffffffffffffffffff1673ffffffffffffffffffffffffffffffffffffffff16815260200160058201805461092490611ca0565b80601f016020809104026020016040519081016040528092919081815260200182805461095090611ca0565b801561099d5780601f106109725761010080835404028352916020019161099d565b820191906000526020600020905b81548152906001019060200180831161098057829003601f168201915b505050505081526020016006820160009054906101000a900460ff161515151581526020016006820160019054906101000a900460ff161515151581526020016006820160029054906101000a900460ff161515151581526020016006820160039054906101000a900460ff161515151581526020016006820160049054906101000a900460ff1615151515815250509050919050565b6000600180549050905060006040518061016001604052808381526020018681526020018581526020018873ffffffffffffffffffffffffffffffffffffffff1681526020018773ffffffffffffffffffffffffffffffffffffffff1681526020018481526020016001151581526020016000151581526020016000151581526020016000151581526020016000151581525090506001819080600181540180825580915050600190039060005260206000209060070201600090919091909150600082015181600001556020820151816001019080519060200190610b1b9291906114c7565b506040820151816002019080519060200190610b389291906114c7565b5060608201518160030160006101000a81548173ffffffffffffffffffffffffffffffffffffffff021916908373ffffffffffffffffffffffffffffffffffffffff16021790555060808201518160040160006101000a81548173ffffffffffffffffffffffffffffffffffffffff021916908373ffffffffffffffffffffffffffffffffffffffff16021790555060a0820151816005019080519060200190610be39291906114c7565b5060c08201518160060160006101000a81548160ff02191690831515021790555060e08201518160060160016101000a81548160ff0219169083151502179055506101008201518160060160026101000a81548160ff0219169083151502179055506101208201518160060160036101000a81548160ff0219169083151502179055506101408201518160060160046101000a81548160ff02191690831515021790555050506000808873ffffffffffffffffffffffffffffffffffffffff1673ffffffffffffffffffffffffffffffffffffffff16815260200190815260200160002060018080549050610cd89190611d48565b90806001815401808255809150506001900390600052602060002001600090919091909150556003819080600181540180825580915050600190039060005260206000209060070201600090919091909150600082015181600001556020820151816001019080519060200190610d509291906114c7565b506040820151816002019080519060200190610d6d9291906114c7565b5060608201518160030160006101000a81548173ffffffffffffffffffffffffffffffffffffffff021916908373ffffffffffffffffffffffffffffffffffffffff16021790555060808201518160040160006101000a81548173ffffffffffffffffffffffffffffffffffffffff021916908373ffffffffffffffffffffffffffffffffffffffff16021790555060a0820151816005019080519060200190610e189291906114c7565b5060c08201518160060160006101000a81548160ff02191690831515021790555060e08201518160060160016101000a81548160ff0219169083151502179055506101008201518160060160026101000a81548160ff0219169083151502179055506101208201518160060160036101000a81548160ff0219169083151502179055506101408201518160060160046101000a81548160ff0219169083151502179055505050600260008773ffffffffffffffffffffffffffffffffffffffff1673ffffffffffffffffffffffffffffffffffffffff16815260200190815260200160002060018080549050610f0e9190611d48565b908060018154018082558091505060019003906000526020600020016000909190919091505550505050505050565b6060813373ffffffffffffffffffffffffffffffffffffffff168173ffffffffffffffffffffffffffffffffffffffff1614610f7857600080fd5b60008060008573ffffffffffffffffffffffffffffffffffffffff1673ffffffffffffffffffffffffffffffffffffffff16815260200190815260200160002080549050905060008167ffffffffffffffff811115610fda57610fd9611a48565b5b60405190808252806020026020018201604052801561101357816020015b611000611437565b815260200190600190039081610ff85790505b50905060008060008773ffffffffffffffffffffffffffffffffffffffff1673ffffffffffffffffffffffffffffffffffffffff1681526020019081526020016000208054806020026020016040519081016040528092919081815260200182805480156110a057602002820191906000526020600020905b81548152602001906001019080831161108c575b5050505050905060005b8381101561142a5760008282815181106110c7576110c6611c42565b5b602002602001015190506000600182815481106110e7576110e6611c42565b5b9060005260206000209060070201604051806101600160405290816000820154815260200160018201805461111b90611ca0565b80601f016020809104026020016040519081016040528092919081815260200182805461114790611ca0565b80156111945780601f1061116957610100808354040283529160200191611194565b820191906000526020600020905b81548152906001019060200180831161117757829003601f168201915b505050505081526020016002820180546111ad90611ca0565b80601f01602080910402602001604051908101604052809291908181526020018280546111d990611ca0565b80156112265780601f106111fb57610100808354040283529160200191611226565b820191906000526020600020905b81548152906001019060200180831161120957829003601f168201915b505050505081526020016003820160009054906101000a900473ffffffffffffffffffffffffffffffffffffffff1673ffffffffffffffffffffffffffffffffffffffff1673ffffffffffffffffffffffffffffffffffffffff1681526020016004820160009054906101000a900473ffffffffffffffffffffffffffffffffffffffff1673ffffffffffffffffffffffffffffffffffffffff1673ffffffffffffffffffffffffffffffffffffffff1681526020016005820180546112eb90611ca0565b80601f016020809104026020016040519081016040528092919081815260200182805461131790611ca0565b80156113645780601f1061133957610100808354040283529160200191611364565b820191906000526020600020905b81548152906001019060200180831161134757829003601f168201915b505050505081526020016006820160009054906101000a900460ff161515151581526020016006820160019054906101000a900460ff161515151581526020016006820160029054906101000a900460ff161515151581526020016006820160039054906101000a900460ff161515151581526020016006820160049054906101000a900460ff16151515158152505090508085848151811061140a57611409611c42565b5b60200260200101819052505050808061142290611d00565b9150506110aa565b5081945050505050919050565b604051806101600160405280600081526020016060815260200160608152602001600073ffffffffffffffffffffffffffffffffffffffff168152602001600073ffffffffffffffffffffffffffffffffffffffff168152602001606081526020016000151581526020016000151581526020016000151581526020016000151581526020016000151581525090565b8280546114d390611ca0565b90600052602060002090601f0160209004810192826114f5576000855561153c565b82601f1061150e57805160ff191683800117855561153c565b8280016001018555821561153c579182015b8281111561153b578251825591602001919060010190611520565b5b509050611549919061154d565b5090565b5b8082111561156657600081600090555060010161154e565b5090565b6000604051905090565b600080fd5b600080fd5b6000819050919050565b6115918161157e565b811461159c57600080fd5b50565b6000813590506115ae81611588565b92915050565b6000602082840312156115ca576115c9611574565b5b60006115d88482850161159f565b91505092915050565b600073ffffffffffffffffffffffffffffffffffffffff82169050919050565b600061160c826115e1565b9050919050565b61161c81611601565b811461162757600080fd5b50565b60008135905061163981611613565b92915050565b60006020828403121561165557611654611574565b5b60006116638482850161162a565b91505092915050565b600081519050919050565b600082825260208201905092915050565b6000819050602082019050919050565b6116a18161157e565b82525050565b600081519050919050565b600082825260208201905092915050565b60005b838110156116e15780820151818401526020810190506116c6565b838111156116f0576000848401525b50505050565b6000601f19601f8301169050919050565b6000611712826116a7565b61171c81856116b2565b935061172c8185602086016116c3565b611735816116f6565b840191505092915050565b61174981611601565b82525050565b60008115159050919050565b6117648161174f565b82525050565b6000610160830160008301516117836000860182611698565b506020830151848203602086015261179b8282611707565b915050604083015184820360408601526117b58282611707565b91505060608301516117ca6060860182611740565b5060808301516117dd6080860182611740565b5060a083015184820360a08601526117f58282611707565b91505060c083015161180a60c086018261175b565b5060e083015161181d60e086018261175b565b5061010083015161183261010086018261175b565b5061012083015161184761012086018261175b565b5061014083015161185c61014086018261175b565b508091505092915050565b6000611873838361176a565b905092915050565b6000602082019050919050565b60006118938261166c565b61189d8185611677565b9350836020820285016118af85611688565b8060005b858110156118eb57848403895281516118cc8582611867565b94506118d78361187b565b925060208a019950506001810190506118b3565b50829750879550505050505092915050565b600060208201905081810360008301526119178184611888565b905092915050565b6000610160830160008301516119386000860182611698565b50602083015184820360208601526119508282611707565b9150506040830151848203604086015261196a8282611707565b915050606083015161197f6060860182611740565b5060808301516119926080860182611740565b5060a083015184820360a08601526119aa8282611707565b91505060c08301516119bf60c086018261175b565b5060e08301516119d260e086018261175b565b506101008301516119e761010086018261175b565b506101208301516119fc61012086018261175b565b50610140830151611a1161014086018261175b565b508091505092915050565b60006020820190508181036000830152611a36818461191f565b905092915050565b600080fd5b600080fd5b7f4e487b7100000000000000000000000000000000000000000000000000000000600052604160045260246000fd5b611a80826116f6565b810181811067ffffffffffffffff82111715611a9f57611a9e611a48565b5b80604052505050565b6000611ab261156a565b9050611abe8282611a77565b919050565b600067ffffffffffffffff821115611ade57611add611a48565b5b611ae7826116f6565b9050602081019050919050565b82818337600083830152505050565b6000611b16611b1184611ac3565b611aa8565b905082815260208101848484011115611b3257611b31611a43565b5b611b3d848285611af4565b509392505050565b600082601f830112611b5a57611b59611a3e565b5b8135611b6a848260208601611b03565b91505092915050565b600080600080600060a08688031215611b8f57611b8e611574565b5b6000611b9d8882890161162a565b9550506020611bae8882890161162a565b945050604086013567ffffffffffffffff811115611bcf57611bce611579565b5b611bdb88828901611b45565b935050606086013567ffffffffffffffff811115611bfc57611bfb611579565b5b611c0888828901611b45565b925050608086013567ffffffffffffffff811115611c2957611c28611579565b5b611c3588828901611b45565b9150509295509295909350565b7f4e487b7100000000000000000000000000000000000000000000000000000000600052603260045260246000fd5b7f4e487b7100000000000000000000000000000000000000000000000000000000600052602260045260246000fd5b60006002820490506001821680611cb857607f821691505b602082108103611ccb57611cca611c71565b5b50919050565b7f4e487b7100000000000000000000000000000000000000000000000000000000600052601160045260246000fd5b6000611d0b8261157e565b91507fffffffffffffffffffffffffffffffffffffffffffffffffffffffffffffffff8203611d3d57611d3c611cd1565b5b600182019050919050565b6000611d538261157e565b9150611d5e8361157e565b925082821015611d7157611d70611cd1565b5b82820390509291505056fea26469706673582212209d8e362c652bce90b13902f700393f5dabd2b8abcb2d6d0e217e427cfd536dd964736f6c634300080e0033",
  "immutableReferences": {},
  "source": "//SPDX-License-Identifier: UNLICENSED\r\npragma solidity >=0.4.22 <0.9.0;\r\n\r\n\r\ncontract MessageContract{\r\n\r\n        struct Message{\r\n        uint id;\r\n        string subject;\r\n        string content;\r\n        address user;\r\n        address enterprise;\r\n        string documenthash;\r\n        //aadir timestamp\r\n        //estados\r\n        bool sent;\r\n        bool downloaded;\r\n        bool resent;\r\n        bool confirmed;\r\n        bool rejected;\r\n    }\r\n\r\n    //user lists\r\n    mapping(address => uint[]) private userMessages;\r\n    Message[] private messageList;\r\n\r\n    //entrerprise lists\r\n    mapping(address => uint[]) private enterpriseMessages;\r\n    Message[] private enterpriseMessageList;\r\n\r\n\r\n\r\n    function writeMessage(address _userWallet, address _enterpriseWallet, string memory _subject, string memory _content, string memory _documentHash) public {\r\n        uint id = messageList.length;\r\n        Message memory message = Message(id,_subject, _content, _userWallet, _enterpriseWallet, _documentHash, true, false, false, false, false);\r\n        messageList.push(message);\r\n        userMessages[_userWallet].push(messageList.length-1);\r\n\r\n        //no creo que est bien\r\n        enterpriseMessageList.push(message);\r\n        enterpriseMessages[_enterpriseWallet].push(messageList.length-1);\r\n    }\r\n\r\n    function getAllMessagesFromUser(address _userWallet) public view onlyOwner(_userWallet) returns(Message[] memory){\r\n        uint numberOfMessages = userMessages[_userWallet].length;\r\n        Message[] memory userMessageList = new Message[](numberOfMessages);\r\n        uint[] memory messagesId = userMessages[_userWallet];\r\n        for(uint j = 0; j< numberOfMessages; j++){\r\n            uint id = messagesId[j];\r\n            Message memory  message = messageList[id];\r\n            userMessageList[j] = message;\r\n\r\n        }\r\n\r\n        return userMessageList;\r\n    }\r\n\r\n    function getMessage(uint _id) public view returns(Message memory){\r\n        return messageList[_id];\r\n    }\r\n\r\n    \r\n    //modifier to check if the user is the owner of the message\r\n    modifier onlyOwner(address _userWallet) {\r\n        require(_userWallet == msg.sender);\r\n        _;\r\n    }\r\n\r\n    //messages user enterprise\r\n    // creo que tengo que hacer otra lista para empresas\r\n    // y despues replicar all messages from  user\r\n\r\n    function getAllMessagesFromEnterprise(address _enterpriseWallet) public view returns(Message[] memory){\r\n        uint numberOfMessagesEnterprise = enterpriseMessages[_enterpriseWallet].length;\r\n        Message[] memory userMessageList = new Message[](numberOfMessagesEnterprise);\r\n        uint[] memory messagesId = enterpriseMessages[_enterpriseWallet];\r\n        for(uint j = 0; j< numberOfMessagesEnterprise; j++){\r\n            uint id = messagesId[j];\r\n            Message memory  message = messageList[id];\r\n            userMessageList[j] = message;\r\n\r\n        }\r\n\r\n        return userMessageList;\r\n    }\r\n\r\n    function setDownloaded(uint _id) public {\r\n        messageList[_id].downloaded = true;\r\n    }\r\n\r\n    function setConfirmed(uint _id) public {\r\n        messageList[_id].confirmed = true;\r\n    }\r\n\r\n    function setRejected(uint _id) public {\r\n        messageList[_id].rejected = true;\r\n    }\r\n\r\n\r\n\r\n\r\n\r\n}",
  "sourcePath": "C:\\Users\\inava\\Desktop\\Repositorios\\DocTrack\\doctrack\\src\\contracts\\contracts\\Message.sol",
  "compiler": {
    "name": "solc",
    "version": "0.8.14+commit.80d49f37.Emscripten.clang"
  },
  "schemaVersion": "3.4.7",
  "updatedAt": "2022-06-29T17:16:41.919Z",
  "networkType": "ethereum",
  "devdoc": {
    "kind": "dev",
    "methods": {},
    "version": 1
  },
  "userdoc": {
    "kind": "user",
    "methods": {},
    "version": 1
  }
}