{
  "contractName": "UserContract",
  "abi": [
    {
      "anonymous": false,
      "inputs": [
        {
          "indexed": true,
          "internalType": "address",
          "name": "previousOwner",
          "type": "address"
        },
        {
          "indexed": true,
          "internalType": "address",
          "name": "newOwner",
          "type": "address"
        }
      ],
      "name": "OwnershipTransferred",
      "type": "event"
    },
    {
      "inputs": [
        {
          "internalType": "address",
          "name": "_wallet",
          "type": "address"
        },
        {
          "internalType": "string",
          "name": "_name",
          "type": "string"
        },
        {
          "internalType": "string",
          "name": "_surname",
          "type": "string"
        },
        {
          "internalType": "string",
          "name": "_id",
          "type": "string"
        },
        {
          "internalType": "string",
          "name": "_phone",
          "type": "string"
        },
        {
          "internalType": "string",
          "name": "_email",
          "type": "string"
        },
        {
          "internalType": "string",
          "name": "_country",
          "type": "string"
        },
        {
          "internalType": "string",
          "name": "_region",
          "type": "string"
        },
        {
          "internalType": "string",
          "name": "_postalCode",
          "type": "string"
        },
        {
          "internalType": "string",
          "name": "_city",
          "type": "string"
        },
        {
          "internalType": "string",
          "name": "_street",
          "type": "string"
        }
      ],
      "name": "addUser",
      "outputs": [],
      "stateMutability": "nonpayable",
      "type": "function"
    },
    {
      "inputs": [
        {
          "internalType": "address",
          "name": "_wallet",
          "type": "address"
        }
      ],
      "name": "getUser",
      "outputs": [
        {
          "components": [
            {
              "internalType": "address",
              "name": "wallet",
              "type": "address"
            },
            {
              "internalType": "string",
              "name": "name",
              "type": "string"
            },
            {
              "internalType": "string",
              "name": "surname",
              "type": "string"
            },
            {
              "internalType": "string",
              "name": "id",
              "type": "string"
            },
            {
              "internalType": "string",
              "name": "phone",
              "type": "string"
            },
            {
              "internalType": "string",
              "name": "email",
              "type": "string"
            },
            {
              "internalType": "string",
              "name": "country",
              "type": "string"
            },
            {
              "internalType": "string",
              "name": "region",
              "type": "string"
            },
            {
              "internalType": "string",
              "name": "postalCode",
              "type": "string"
            },
            {
              "internalType": "string",
              "name": "city",
              "type": "string"
            },
            {
              "internalType": "string",
              "name": "street",
              "type": "string"
            },
            {
              "internalType": "string",
              "name": "imageHash",
              "type": "string"
            }
          ],
          "internalType": "struct UserContract.User",
          "name": "user",
          "type": "tuple"
        }
      ],
      "stateMutability": "view",
      "type": "function"
    },
    {
      "inputs": [],
      "name": "owner",
      "outputs": [
        {
          "internalType": "address",
          "name": "",
          "type": "address"
        }
      ],
      "stateMutability": "view",
      "type": "function"
    },
    {
      "inputs": [],
      "name": "renounceOwnership",
      "outputs": [],
      "stateMutability": "nonpayable",
      "type": "function"
    },
    {
      "inputs": [
        {
          "internalType": "address",
          "name": "newOwner",
          "type": "address"
        }
      ],
      "name": "transferOwnership",
      "outputs": [],
      "stateMutability": "nonpayable",
      "type": "function"
    },
    {
      "inputs": [
        {
          "internalType": "address",
          "name": "_wallet",
          "type": "address"
        },
        {
          "internalType": "string",
          "name": "_imageHash",
          "type": "string"
        }
      ],
      "name": "updateImageHash",
      "outputs": [],
      "stateMutability": "nonpayable",
      "type": "function"
    },
    {
      "inputs": [
        {
          "internalType": "address",
          "name": "_wallet",
          "type": "address"
        },
        {
          "internalType": "string",
          "name": "_name",
          "type": "string"
        },
        {
          "internalType": "string",
          "name": "_surname",
          "type": "string"
        },
        {
          "internalType": "string",
          "name": "_id",
          "type": "string"
        },
        {
          "internalType": "string",
          "name": "_phone",
          "type": "string"
        },
        {
          "internalType": "string",
          "name": "_email",
          "type": "string"
        },
        {
          "internalType": "string",
          "name": "_country",
          "type": "string"
        },
        {
          "internalType": "string",
          "name": "_region",
          "type": "string"
        },
        {
          "internalType": "string",
          "name": "_postalCode",
          "type": "string"
        },
        {
          "internalType": "string",
          "name": "_city",
          "type": "string"
        },
        {
          "internalType": "string",
          "name": "_street",
          "type": "string"
        }
      ],
      "name": "updateUser",
      "outputs": [],
      "stateMutability": "nonpayable",
      "type": "function"
    }
  ],
  "bytecode": "0x608060405234801561001057600080fd5b5061002d61002261003260201b60201c565b61003a60201b60201c565b6100fe565b600033905090565b60008060009054906101000a900473ffffffffffffffffffffffffffffffffffffffff169050816000806101000a81548173ffffffffffffffffffffffffffffffffffffffff021916908373ffffffffffffffffffffffffffffffffffffffff1602179055508173ffffffffffffffffffffffffffffffffffffffff168173ffffffffffffffffffffffffffffffffffffffff167f8be0079c531659141344cd1fd0a4f28419497f9722a3daafe3b4186f6b6457e060405160405180910390a35050565b611b088061010d6000396000f3fe608060405234801561001057600080fd5b506004361061007d5760003560e01c80637859210a1161005b5780637859210a146100d85780638da5cb5b146100f4578063cce5596114610112578063f2fde38b1461012e5761007d565b806302de0035146100825780636f77926b1461009e578063715018a6146100ce575b600080fd5b61009c60048036038101906100979190611473565b61014a565b005b6100b860048036038101906100b3919061167f565b6103a9565b6040516100c5919061188d565b60405180910390f35b6100d6610a9f565b005b6100f260048036038101906100ed9190611473565b610b27565b005b6100fc610de3565b60405161010991906118be565b60405180910390f35b61012c600480360381019061012791906118d9565b610e0c565b005b6101486004803603810190610143919061167f565b610fde565b005b60006040518061018001604052808d73ffffffffffffffffffffffffffffffffffffffff1681526020018c81526020018b81526020018a81526020018981526020018881526020018781526020018681526020018581526020018481526020018381526020016040518060600160405280602e8152602001611aa5602e9139815250905080600160008e73ffffffffffffffffffffffffffffffffffffffff1673ffffffffffffffffffffffffffffffffffffffff16815260200190815260200160002060008201518160000160006101000a81548173ffffffffffffffffffffffffffffffffffffffff021916908373ffffffffffffffffffffffffffffffffffffffff16021790555060208201518160010190805190602001906102719291906111a1565b50604082015181600201908051906020019061028e9291906111a1565b5060608201518160030190805190602001906102ab9291906111a1565b5060808201518160040190805190602001906102c89291906111a1565b5060a08201518160050190805190602001906102e59291906111a1565b5060c08201518160060190805190602001906103029291906111a1565b5060e082015181600701908051906020019061031f9291906111a1565b5061010082015181600801908051906020019061033d9291906111a1565b5061012082015181600901908051906020019061035b9291906111a1565b5061014082015181600a0190805190602001906103799291906111a1565b5061016082015181600b0190805190602001906103979291906111a1565b50905050505050505050505050505050565b6103b1611227565b600160008373ffffffffffffffffffffffffffffffffffffffff1673ffffffffffffffffffffffffffffffffffffffff168152602001908152602001600020604051806101800160405290816000820160009054906101000a900473ffffffffffffffffffffffffffffffffffffffff1673ffffffffffffffffffffffffffffffffffffffff1673ffffffffffffffffffffffffffffffffffffffff16815260200160018201805461046290611964565b80601f016020809104026020016040519081016040528092919081815260200182805461048e90611964565b80156104db5780601f106104b0576101008083540402835291602001916104db565b820191906000526020600020905b8154815290600101906020018083116104be57829003601f168201915b505050505081526020016002820180546104f490611964565b80601f016020809104026020016040519081016040528092919081815260200182805461052090611964565b801561056d5780601f106105425761010080835404028352916020019161056d565b820191906000526020600020905b81548152906001019060200180831161055057829003601f168201915b5050505050815260200160038201805461058690611964565b80601f01602080910402602001604051908101604052809291908181526020018280546105b290611964565b80156105ff5780601f106105d4576101008083540402835291602001916105ff565b820191906000526020600020905b8154815290600101906020018083116105e257829003601f168201915b5050505050815260200160048201805461061890611964565b80601f016020809104026020016040519081016040528092919081815260200182805461064490611964565b80156106915780601f1061066657610100808354040283529160200191610691565b820191906000526020600020905b81548152906001019060200180831161067457829003601f168201915b505050505081526020016005820180546106aa90611964565b80601f01602080910402602001604051908101604052809291908181526020018280546106d690611964565b80156107235780601f106106f857610100808354040283529160200191610723565b820191906000526020600020905b81548152906001019060200180831161070657829003601f168201915b5050505050815260200160068201805461073c90611964565b80601f016020809104026020016040519081016040528092919081815260200182805461076890611964565b80156107b55780601f1061078a576101008083540402835291602001916107b5565b820191906000526020600020905b81548152906001019060200180831161079857829003601f168201915b505050505081526020016007820180546107ce90611964565b80601f01602080910402602001604051908101604052809291908181526020018280546107fa90611964565b80156108475780601f1061081c57610100808354040283529160200191610847565b820191906000526020600020905b81548152906001019060200180831161082a57829003601f168201915b5050505050815260200160088201805461086090611964565b80601f016020809104026020016040519081016040528092919081815260200182805461088c90611964565b80156108d95780601f106108ae576101008083540402835291602001916108d9565b820191906000526020600020905b8154815290600101906020018083116108bc57829003601f168201915b505050505081526020016009820180546108f290611964565b80601f016020809104026020016040519081016040528092919081815260200182805461091e90611964565b801561096b5780601f106109405761010080835404028352916020019161096b565b820191906000526020600020905b81548152906001019060200180831161094e57829003601f168201915b50505050508152602001600a8201805461098490611964565b80601f01602080910402602001604051908101604052809291908181526020018280546109b090611964565b80156109fd5780601f106109d2576101008083540402835291602001916109fd565b820191906000526020600020905b8154815290600101906020018083116109e057829003601f168201915b50505050508152602001600b82018054610a1690611964565b80601f0160208091040260200160405190810160405280929190818152602001828054610a4290611964565b8015610a8f5780601f10610a6457610100808354040283529160200191610a8f565b820191906000526020600020905b815481529060010190602001808311610a7257829003601f168201915b5050505050815250509050919050565b610aa76110d5565b73ffffffffffffffffffffffffffffffffffffffff16610ac5610de3565b73ffffffffffffffffffffffffffffffffffffffff1614610b1b576040517f08c379a0000000000000000000000000000000000000000000000000000000008152600401610b12906119f2565b60405180910390fd5b610b2560006110dd565b565b8a8073ffffffffffffffffffffffffffffffffffffffff16600160008373ffffffffffffffffffffffffffffffffffffffff1673ffffffffffffffffffffffffffffffffffffffff16815260200190815260200160002060000160009054906101000a900473ffffffffffffffffffffffffffffffffffffffff1673ffffffffffffffffffffffffffffffffffffffff16148015610c545750600073ffffffffffffffffffffffffffffffffffffffff16600160008373ffffffffffffffffffffffffffffffffffffffff1673ffffffffffffffffffffffffffffffffffffffff16815260200190815260200160002060000160009054906101000a900473ffffffffffffffffffffffffffffffffffffffff1673ffffffffffffffffffffffffffffffffffffffff1614155b610c5d57600080fd5b8b8073ffffffffffffffffffffffffffffffffffffffff163373ffffffffffffffffffffffffffffffffffffffff1614610c9657600080fd5b6000600160008f73ffffffffffffffffffffffffffffffffffffffff1673ffffffffffffffffffffffffffffffffffffffff16815260200190815260200160002090508c816001019080519060200190610cf19291906111a1565b508b816002019080519060200190610d0a9291906111a1565b508a816003019080519060200190610d239291906111a1565b5089816004019080519060200190610d3c9291906111a1565b5088816005019080519060200190610d559291906111a1565b5087816006019080519060200190610d6e9291906111a1565b5086816007019080519060200190610d879291906111a1565b5085816008019080519060200190610da09291906111a1565b5084816009019080519060200190610db99291906111a1565b508381600a019080519060200190610dd29291906111a1565b505050505050505050505050505050565b60008060009054906101000a900473ffffffffffffffffffffffffffffffffffffffff16905090565b818073ffffffffffffffffffffffffffffffffffffffff16600160008373ffffffffffffffffffffffffffffffffffffffff1673ffffffffffffffffffffffffffffffffffffffff16815260200190815260200160002060000160009054906101000a900473ffffffffffffffffffffffffffffffffffffffff1673ffffffffffffffffffffffffffffffffffffffff16148015610f395750600073ffffffffffffffffffffffffffffffffffffffff16600160008373ffffffffffffffffffffffffffffffffffffffff1673ffffffffffffffffffffffffffffffffffffffff16815260200190815260200160002060000160009054906101000a900473ffffffffffffffffffffffffffffffffffffffff1673ffffffffffffffffffffffffffffffffffffffff1614155b610f4257600080fd5b828073ffffffffffffffffffffffffffffffffffffffff163373ffffffffffffffffffffffffffffffffffffffff1614610f7b57600080fd5b6000600160008673ffffffffffffffffffffffffffffffffffffffff1673ffffffffffffffffffffffffffffffffffffffff16815260200190815260200160002090508381600b019080519060200190610fd69291906111a1565b505050505050565b610fe66110d5565b73ffffffffffffffffffffffffffffffffffffffff16611004610de3565b73ffffffffffffffffffffffffffffffffffffffff161461105a576040517f08c379a0000000000000000000000000000000000000000000000000000000008152600401611051906119f2565b60405180910390fd5b600073ffffffffffffffffffffffffffffffffffffffff168173ffffffffffffffffffffffffffffffffffffffff16036110c9576040517f08c379a00000000000000000000000000000000000000000000000000000000081526004016110c090611a84565b60405180910390fd5b6110d2816110dd565b50565b600033905090565b60008060009054906101000a900473ffffffffffffffffffffffffffffffffffffffff169050816000806101000a81548173ffffffffffffffffffffffffffffffffffffffff021916908373ffffffffffffffffffffffffffffffffffffffff1602179055508173ffffffffffffffffffffffffffffffffffffffff168173ffffffffffffffffffffffffffffffffffffffff167f8be0079c531659141344cd1fd0a4f28419497f9722a3daafe3b4186f6b6457e060405160405180910390a35050565b8280546111ad90611964565b90600052602060002090601f0160209004810192826111cf5760008555611216565b82601f106111e857805160ff1916838001178555611216565b82800160010185558215611216579182015b828111156112155782518255916020019190600101906111fa565b5b509050611223919061129e565b5090565b604051806101800160405280600073ffffffffffffffffffffffffffffffffffffffff16815260200160608152602001606081526020016060815260200160608152602001606081526020016060815260200160608152602001606081526020016060815260200160608152602001606081525090565b5b808211156112b757600081600090555060010161129f565b5090565b6000604051905090565b600080fd5b600080fd5b600073ffffffffffffffffffffffffffffffffffffffff82169050919050565b60006112fa826112cf565b9050919050565b61130a816112ef565b811461131557600080fd5b50565b60008135905061132781611301565b92915050565b600080fd5b600080fd5b6000601f19601f8301169050919050565b7f4e487b7100000000000000000000000000000000000000000000000000000000600052604160045260246000fd5b61138082611337565b810181811067ffffffffffffffff8211171561139f5761139e611348565b5b80604052505050565b60006113b26112bb565b90506113be8282611377565b919050565b600067ffffffffffffffff8211156113de576113dd611348565b5b6113e782611337565b9050602081019050919050565b82818337600083830152505050565b6000611416611411846113c3565b6113a8565b90508281526020810184848401111561143257611431611332565b5b61143d8482856113f4565b509392505050565b600082601f83011261145a5761145961132d565b5b813561146a848260208601611403565b91505092915050565b60008060008060008060008060008060006101608c8e031215611499576114986112c5565b5b60006114a78e828f01611318565b9b505060208c013567ffffffffffffffff8111156114c8576114c76112ca565b5b6114d48e828f01611445565b9a505060408c013567ffffffffffffffff8111156114f5576114f46112ca565b5b6115018e828f01611445565b99505060608c013567ffffffffffffffff811115611522576115216112ca565b5b61152e8e828f01611445565b98505060808c013567ffffffffffffffff81111561154f5761154e6112ca565b5b61155b8e828f01611445565b97505060a08c013567ffffffffffffffff81111561157c5761157b6112ca565b5b6115888e828f01611445565b96505060c08c013567ffffffffffffffff8111156115a9576115a86112ca565b5b6115b58e828f01611445565b95505060e08c013567ffffffffffffffff8111156115d6576115d56112ca565b5b6115e28e828f01611445565b9450506101008c013567ffffffffffffffff811115611604576116036112ca565b5b6116108e828f01611445565b9350506101208c013567ffffffffffffffff811115611632576116316112ca565b5b61163e8e828f01611445565b9250506101408c013567ffffffffffffffff8111156116605761165f6112ca565b5b61166c8e828f01611445565b9150509295989b509295989b9093969950565b600060208284031215611695576116946112c5565b5b60006116a384828501611318565b91505092915050565b6116b5816112ef565b82525050565b600081519050919050565b600082825260208201905092915050565b60005b838110156116f55780820151818401526020810190506116da565b83811115611704576000848401525b50505050565b6000611715826116bb565b61171f81856116c6565b935061172f8185602086016116d7565b61173881611337565b840191505092915050565b60006101808301600083015161175c60008601826116ac565b5060208301518482036020860152611774828261170a565b9150506040830151848203604086015261178e828261170a565b915050606083015184820360608601526117a8828261170a565b915050608083015184820360808601526117c2828261170a565b91505060a083015184820360a08601526117dc828261170a565b91505060c083015184820360c08601526117f6828261170a565b91505060e083015184820360e0860152611810828261170a565b91505061010083015184820361010086015261182c828261170a565b915050610120830151848203610120860152611848828261170a565b915050610140830151848203610140860152611864828261170a565b915050610160830151848203610160860152611880828261170a565b9150508091505092915050565b600060208201905081810360008301526118a78184611743565b905092915050565b6118b8816112ef565b82525050565b60006020820190506118d360008301846118af565b92915050565b600080604083850312156118f0576118ef6112c5565b5b60006118fe85828601611318565b925050602083013567ffffffffffffffff81111561191f5761191e6112ca565b5b61192b85828601611445565b9150509250929050565b7f4e487b7100000000000000000000000000000000000000000000000000000000600052602260045260246000fd5b6000600282049050600182168061197c57607f821691505b60208210810361198f5761198e611935565b5b50919050565b600082825260208201905092915050565b7f4f776e61626c653a2063616c6c6572206973206e6f7420746865206f776e6572600082015250565b60006119dc602083611995565b91506119e7826119a6565b602082019050919050565b60006020820190508181036000830152611a0b816119cf565b9050919050565b7f4f776e61626c653a206e6577206f776e657220697320746865207a65726f206160008201527f6464726573730000000000000000000000000000000000000000000000000000602082015250565b6000611a6e602683611995565b9150611a7982611a12565b604082019050919050565b60006020820190508181036000830152611a9d81611a61565b905091905056fe516d55736f3368446e6434583134794d33353866563748346f715471686839737a3138733273483151684c565735a264697066735822122052273bade68ce1c922237a7f221ac6885d20bcd2060bd6953908337f6c0a6a6664736f6c634300080e0033",
  "immutableReferences": {},
  "source": "//SPDX-License-Identifier: UNLICENSED\r\npragma solidity >=0.4.22 <0.9.0;\r\n\r\nimport \"./utils/Ownable.sol\";\r\n\r\ncontract UserContract is Ownable {\r\n    struct User {\r\n        address wallet;\r\n        string name;\r\n        string surname;\r\n        string id;\r\n        string phone;\r\n        string email;\r\n        string country;\r\n        string region;\r\n        string postalCode;\r\n        string city;\r\n        string street;\r\n        //Guardo los numeros como string porque no voy a operar con ellos, adems que en este caso, pueden ser nulos o vacos, mientras que si es un uint, no.\r\n        string imageHash;\r\n    }\r\n\r\n    mapping(address => User) private users;\r\n\r\n    function addUser(\r\n        address _wallet,\r\n        string memory _name,\r\n        string memory _surname,\r\n        string memory _id,\r\n        string memory _phone,\r\n        string memory _email,\r\n        string memory _country,\r\n        string memory _region,\r\n        string memory _postalCode,\r\n        string memory _city,\r\n        string memory _street\r\n\r\n    ) public {\r\n        User memory user = User(\r\n            _wallet,\r\n            _name,\r\n            _surname,\r\n            _id,\r\n            _phone,\r\n            _email,\r\n            _country,\r\n            _region,\r\n            _postalCode,\r\n            _city,\r\n            _street,\r\n            \"QmUso3hDnd4X14yM358fV7H4oqTqhh9sz18s2sH1QhLVW5\"\r\n        );\r\n        users[_wallet] = user;\r\n    }\r\n\r\n    //TODO: GET user only if same wallet or enterprise\r\n    function getUser(address _wallet) public view returns (User memory user) {\r\n        user = users[_wallet];\r\n    }\r\n\r\n    //TODO: update user only if same wallet\r\n    function updateUser(\r\n        address _wallet,\r\n        string memory _name,\r\n        string memory _surname,\r\n        string memory _id,\r\n        string memory _phone,\r\n        string memory _email,\r\n        string memory _country,\r\n        string memory _region,\r\n        string memory _postalCode,\r\n        string memory _city,\r\n        string memory _street\r\n    ) public requireUserExist(_wallet) requireWallet(_wallet) {\r\n        User storage user = users[_wallet];\r\n        user.name = _name;\r\n        user.surname = _surname;\r\n        user.id = _id;\r\n        user.phone = _phone;\r\n        user.email = _email;\r\n        user.country = _country;\r\n        user.region = _region;\r\n        user.postalCode = _postalCode;\r\n        user.city = _city;\r\n        user.street = _street;\r\n    }\r\n\r\n    function updateImageHash(address _wallet, string memory _imageHash) public requireUserExist(_wallet) requireWallet(_wallet) {\r\n        User storage user = users[_wallet];\r\n        user.imageHash = _imageHash;\r\n    }\r\n\r\n    //modifier that require that user exist on the mapping\r\n    modifier requireUserExist(address _wallet) {\r\n        require(\r\n            users[_wallet].wallet == _wallet &&\r\n                users[_wallet].wallet != address(0)\r\n        );\r\n        _;\r\n    }\r\n\r\n    //modifier to check that wallet is the same as the one in the mapping\r\n    modifier requireWallet(address _wallet) {\r\n        require(msg.sender == _wallet);\r\n        _;\r\n    }\r\n\r\n\r\n}\r\n",
  "sourcePath": "C:\\Users\\inava\\Desktop\\Repositorios\\DocTrack\\doctrack\\src\\contracts\\contracts\\User.sol",
  "compiler": {
    "name": "solc",
    "version": "0.8.14+commit.80d49f37.Emscripten.clang"
  },
  "schemaVersion": "3.4.7",
  "updatedAt": "2022-06-29T17:16:41.878Z",
  "networkType": "ethereum",
  "devdoc": {
    "kind": "dev",
    "methods": {
      "owner()": {
        "details": "Returns the address of the current owner."
      },
      "renounceOwnership()": {
        "details": "Leaves the contract without owner. It will not be possible to call `onlyOwner` functions anymore. Can only be called by the current owner. NOTE: Renouncing ownership will leave the contract without an owner, thereby removing any functionality that is only available to the owner."
      },
      "transferOwnership(address)": {
        "details": "Transfers ownership of the contract to a new account (`newOwner`). Can only be called by the current owner."
      }
    },
    "version": 1
  },
  "userdoc": {
    "kind": "user",
    "methods": {},
    "version": 1
  }
}